:1000000030C500004CC500004AC5000048C50000CE
:1000100046C5000044C5000042C5000040C50000C0
:100020003EC500003CC500003AC5000038C50000D0
:1000300036C5000034C5000032C5000030C50000E0
:100040002EC500002CC500002AC5000028C50000F0
:1000500026C5000024C5000022C5000020C5000000
:100060001EC500001CC500001AC5000018C5000010
:1000700016C5000014C5000012C5000010C5000020
:100080000EC500000CC500000AC50000BF00030338
:1000900004040304050C0DFFFE08FE08FE017603B0
:1000A0004509B9200500CC09210882C4894B8C0080
:1000B0002208336D8B884A0023128744BC483012D3
:1000C000324582919029128CC4002410A53CAB5873
:1000D000252209314524915A080025198AC41D9109
:1000E0004C228949122529224944128C486221490F
:1000F0002C2601261188C42CA92428894A23329150
:10010000126522012706316D8A01280CA4B4BA5069
:100110004822D2260B06290CA4B48A604C498B28AD
:100120000D002A0B555CAB949449A610002B0A5580
:100130004CAB60A8140C012C0842B4098A04002DB1
:1001400006135C8A012E0622C409022F0C84C4BA4D
:10015000A45828168AC500300B85449B89842F92A9
:100160000900310984451BC9482F04320D85449B81
:100170008984221389628701330E85449B898422F6
:10018000125228920900340C8544AB95882432BA67
:100190008906350C85448B8324C842914C00360D6A
:1001A00085449B89844691B0482600370B84448B54
:1001B000432C140B6901380E85449B89842299488D
:1001C00058241300390D85449B89844542A3482651
:1001D000003A0752C40912013B0872B409124502E1
:1001E0003C0856CC4B91B2023D0735548B6A013E18
:1001F0000956CC0BB19222003F0D85449B899A4849
:100200001407C944004014A93CBDA14C148D842896
:10021000FA49228A43E420120041108943CC386015
:100220003C0D0943B253503222421087440C938A4A
:10023000485252114944870800430E8744AC491A7A
:1002400071AA1809862800441288C40C9B2C249398
:10025000C82432894C228B9800450F86C40B8B280A
:100260002209912421514474461086C40B8B282204
:100270008A48422449484602470F8744AC491A71CC
:100280002AAA4962A24900481189440D0A452692CA
:10029000894E32914C249330490984C40A8A482FEC
:1002A000044A0C86C42B9A5045979068044B1189D8
:1002B000C40C925A4C1494448B22990A69004C0B3A
:1002C00086C40B9A50A788E8004D198B440E1A6516
:1002D000368A4822A28824228A4822A2905248655F
:1002E00022214E1488C40CD944161A8528A1082945
:1002F000348A496611004F0D8744AC598A8C9B247F
:10030000161B01500F87440C938A48229294A442F2
:100310001A005114983CAC612C2493C8243209452E
:10032000241152A21200520D88C40C9B48A7584DAC
:10033000A48532530C86C49B255AB1469A4C00546E
:100340000C86C48B8B9690501B0500551388C40CEB
:10035000CA44169285642159481692C5480056121F
:1003600088C40CCA441692C5244149501215CB00CA
:1003700057198B440E8A6422128594429288242451
:1003800089486293A14C281301581188C40CCA44AF
:10039000169A04C7C3C828269910591088C40CCAD5
:1003A000441693042551B12A09005A0A86C48B9B2E
:1003B0006CB44D765B08A3348A8A7E195C0C84C4C5
:1003C0008A5830168C0563015D08A3348A897E291A
:1003D0005E0B6554AB606C144993055F0616340BD5
:1003E00003600723740A9100610854C48A998462E7
:1003F000620D86C40BA116C984449A4C00630B5548
:10040000449B8968268A4C00640B86C4BBA1CA89B8
:1004100065A200650955449B89E42024660D85C4C6
:10042000AA89242222C9942800670C8634CBD0489C
:10043000A26966BB00680B86C40BA116C984C424DC
:10044000690A84C41A9174A485006A0AA3B41AB50F
:10045000892E14006B0C86440BA1160989245119AE
:100460006C0884C48A91BE106D0E5AC40D8948B2BE
:100470004212914424056E0A56C40B8964426212EA
:100480006F0A56C41B8A88494201700D76B40B89E5
:100490006442225D843300710F77B49B8A482292B4
:1004A000484612A99000720954C40AC94909007348
:1004B0000854C49A12A902740973449A88A4A22405
:1004C000750956C40B11978902760C56C48B894A5C
:1004D0004812138A00770F59448D892E21892426CA
:1004E000114A4400780B56C48B894A4C165119792D
:1004F0000E76B48B894A4812138A6642007A0955EF
:10050000440B8B48C9007B0BA4B42A89484526D2EA
:10051000267C0781468B43007D0CA4B40A99484D84
:1005200022D222027E0826DC9B896402A00500CC30
:1005300009A10882B4095AE400A20E753CCB8825B3
:1005400022894C22A31800A30F87442C922824B49C
:10055000096592CB0400A40F574C8CC824A2241127
:100560004924914900A51088C40CCA441693042557
:100570004269514A02A60781468B0901A70EA4B41D
:100580001AD24C12A14464230A00A80823748A8852
:100590002400A91388C42C5A30129A484211495099
:1005A00034498C9100AA0863540A592536AB0B567E
:1005B000C4AB140945241125AC0735548B6202AD38
:1005C00006135C8A01AE1488C42C5A3012A148422A
:1005D00011C948129124C64800AF0614F40A02B0AB
:1005E0000943649A14490A00B109554CAB50290ECD
:1005F00028B20843E49949CA00B30843E489496C26
:1006000002B40723741A0A00B50A76B40B11170B4B
:100610005108B61187449CC32442094D829160243D
:10062000188915B70622DC0902B80732358AD000CE
:10063000B90843E499882832BA0A64D41A4948149C
:100640009112BB0E56C48B504822925024A1100028
:10065000BC1388C49C584896149B8443C1882C4280
:100660008A4500BD1288C49C584896149B8443B2A6
:1006700048522C6900BE1388C48C512C311213854A
:1006800043C1882C428A4500BF0D85342B991C1428
:100690005293482600C014B9432C39448E16078C57
:1006A000A7216148760A4A4604C113B9435CB11CCC
:1006B000290E184F43C290EC14948C08C214B9430D
:1006C000BCA9448E12078CA7216148760A4A4604C9
:1006D000C315B9433C493022478A03C6D39030241E
:1006E0003B05252302C415B943BC483812478A0389
:1006F000C6D39030243B05252302C515B9433C7170
:10070000282C87C401E3694818929D82921101C682
:10071000168AC4AD432C228A4524B110AD128A89B1
:10072000223111C500C710A734AC491A71AA1809A3
:100730008688511900C812B6C41BA91C6211452431
:10074000219224248A880EC911B6C43B75884514A9
:10075000918448929028223ACA12B6C4AB91446C54
:10076000114524219224248A880ECB14B6C4AB48A8
:100770002C1207584411498824098922A203CC0B62
:10078000B4C40A999422D20B01CD0BB4C42A899423
:1007900022D20B01CE0CB5C49A892A49A6270A0099
:1007A000CF0AB4C49A1C2922BD10D01188C40C9B56
:1007B0002C24334964129944163101D118B8C43C31
:1007C000492C2287C926B2D02844094548A1514C5A
:1007D000328B00D210B7442CB11C384B917193C4AA
:1007E000622300D310B7443CA11C3A4B917193C4CF
:1007F000622300D411B744AC99440E9BA5C8B849F4
:1008000062B11100D512B7442C49282207CE526498
:10081000DC24B1D80800D612B744AC48301207CE59
:100820005264DC24B1D80800D70A554C0B896416F1
:100830009B28D8128744AC495A44548950222549F0
:100840002C121901D916B8C42C39400EA44C6421BD
:1008500059481692856421598C04DA16B8C44CA9FB
:100860001C4899C842B2902C240BC942B218090006
:10087000DB16B8C4BCA1440EA24C642159481692A0
:10088000856421598C04DC17B8C4BC4834128751E4
:1008900026B2902C240BC942B2902C4602DD12B82D
:1008A000C44CA91C4899C86292A0242A562501DE8E
:1008B0000F87448C6949452411494A421A00DF10C8
:1008C00087442C928A48A2A42292882A1200E00A25
:1008D00084C40A997426A118E10A84C42A8974265A
:1008E000A118E20E95C4AAD84475289A442414008D
:1008F000E30C85C41ACD43D12422A100E40A84C4A8
:100900008A48D6998462E50C84C41A4928229949F8
:100910002806E60E58C48CC92424911C24B209016F
:10092000E70D75349B8968268ACC622200E80C8525
:10093000441BA11C30911C8404E90B85442B75C811
:1009400044721012EA0C9544ABD844792239080954
:10095000EB0D85449BA4481C30911C8404EC0A8454
:10096000C40A9974A48500ED0A84C42A8974A485F4
:1009700000EE0B95C4AAD84475A68902EF0A84C478
:100980008A48D6911602F00E86C40B51689446111F
:1009900031492800F10D86C41B498A1CA23221313D
:1009A00009F20D86C41BA91C441131492800F30C1F
:1009B00086C43B751045C424A100F40F96C4ABE077
:1009C00048228750444C120A00F50E86C42B498AEF
:1009D0001C421131492800F60E86C49BB4481C44C1
:1009E0001131492800F70A554CAB38A00E0801F820
:1009F0000D76BCDB0845622149285100F90B86C4FD
:100A00001BA91C22E23251FA0B86C43B758888CBA5
:100A10004401FB0D96C4ABE048220788B84C14FC97
:100A20000C86C49BB4481C22E23251FD10A6B43B94
:100A300075C8442524890945332100FE0EA6B40B50
:100A4000A116C98444BA086700FF11A6B49BB44834
:100A50001C325109496242D14C0800000004FFFFDA
:100A6000000011241FBECFEFD0E1DEBFCDBF11E0EB
:100A7000A0E0B1E0E6EDF5E200E00BBF02C00790B8
:100A80000D92A838B107D9F715E0A8E8B1E001C088
:100A90001D92A53EB107E1F722D10C94E912B0CA2C
:100AA00088E4809370000895982FE4E7F0E01082C6
:100AB00084EA808380818823ECF780917100887FAD
:100AC000883011F081E008959093730084E880935A
:100AD0007400E4E7F0E080818823ECF780917100F6
:100AE000982F987F983111F480E0089580E0903439
:100AF00009F081E008958093730084E88093740086
:100B0000E4E7F0E080818823ECF78091710090E0C9
:100B1000887F883209F091E0892F089584E98093D5
:100B200074000895AF92BF92CF92DF92EF92FF923E
:100B30000F931F936A3251F06B3221F0693209F042
:100B40004AC008C081E08A95F1F745C085E38A95DF
:100B5000F1F741C0642F70E080E090E00E94BD1189
:100B60005B016C0120E030E04AE755E40E944B1243
:100B70007B018C0120E030E040E85FE30E948D11B2
:100B800088231CF461E070E023C0C801B70120E0B5
:100B90003FEF4FE757E40E9447121816ACF4C60126
:100BA000B50120E030E040E251E40E944B120E9487
:100BB0009111CB01672B79F020E931E0F9013197F0
:100BC000F1F70197D9F707C0C801B7010E94911149
:100BD000CB010197F1F781E01F910F91FF90EF900A
:100BE000DF90CF90BF90AF900895EF92FF920F9358
:100BF0001F93DF93CF93CDB7DEB769970FB6F89405
:100C0000DEBF0FBECDBF8EEA89831A8280E18B835F
:100C100090E49C8380EB8D8381E88E838FEF8F83BC
:100C200081EA888786EA898789EC8A8788EA8B87C0
:100C30008FE38C8783ED8D871E8685ED8F8780E817
:100C4000888B89ED898B81EF8A8B8AED8B8B82E192
:100C50008C8B8BED8D8B9E8B8DE88F8B84E1888FB9
:100C60008FEA898F1DDF28EE33E040E951E0CA01A9
:100C70000197F1F721503040D1F7E2E3F0E08081B5
:100C8000877F808380EA9FE00197F1F78081886009
:100C900080838E010F5F1F4F0F2EFAE1EF2EFF248E
:100CA000F02DEC0EFD1E8AE790E0FEDE80E090E085
:100CB00022DFF80181918F0190E01DDF2FDF0E15FB
:100CC0001F0589F769960FB6F894DEBF0FBECDBF3A
:100CD000CF91DF911F910F91FF90EF9008952F9288
:100CE0003F924F925F926F927F928F929F92AF92BC
:100CF000BF92CF92DF92EF920F931F93CF93DF9328
:100D000080E184BB8FE085BB88E081BB6EDF08E8B3
:100D100015E0C8016EE171E040E057E022E935E0FE
:100D200031D2C8016CE870E069D4C8016CD1C80147
:100D300060E04EE120E031E00BD6C8015AD10F2E21
:100D4000F3E38F2E9924F02D0F2EF5E3AF2EBB2465
:100D5000F02D68010F2EFEE04F2EF1E05F2EF02DFA
:100D60000F2EF8EE6F2EF3E07F2EF02DC0E9D1E0CC
:100D70000F2EF1E12F2EF1E03F2EF02DF4018081B6
:100D800090E08F7090708D309105C1F00E9709F052
:100D900032C0F501808180618083C60134D1C601F3
:100DA00060E048E09201D4D5C60123D19301CE0181
:100DB0000197F1F721503040D1F7E0CFF501808164
:100DC00080618083C6011FD1C60160E040E19101CE
:100DD000BFD5C60165E041E122E30EE1EE2468944F
:100DE000E3F844D0C60105D19301CE010197F1F794
:100DF00021503040D1F7F50180818F7E8083BECFB6
:100E00001F93CF93DF93FC01142F6831C9F0693130
:100E100028F4643191F0673129F406C06931F1F0AA
:100E20006032F9F080E01EC04423D9F0E9018991D5
:100E300090E061DE1150D9F714C032DE81E012C0BB
:100E40000190F081E02D8585843018F082E1809357
:100E500070008AE790E028DE81E004C05FDE81E078
:100E600001C081E0DF91CF911F9108958F929F92F1
:100E7000AF92BF92CF92DF92EF92FF920F931F93A8
:100E8000CF93DF93EC01C62ED42EA22EB02EF22EDD
:100E9000F60E102F140F2F2D012F78D6882309F46A
:100EA0004CC09E2C9C0C8E2C8D0CFA94FE1811506C
:100EB0001E19CE01692D482D2E2D02E00BD1CE0139
:100EC0006F2D482D2E2D01E005D1CE01692D412F2A
:100ED0002E2D04E0FFD0CE016F2D412F2E2D08E0E6
:100EE000F9D08A2D8E19082F0E198B2D8E19F82EF8
:100EF000FE18033078F0192D1F5F0250CE01612FCC
:100F00004D2D202F12D64D2D41504B0DCE01612F6E
:100F1000202F0BD682E08F1580F4182D1F5F0F2D28
:100F20000250CE016C2D412F202FE1D56C2D615048
:100F30006A0DCE01412F202FDAD5DF91CF911F917D
:100F40000F91FF90EF90DF90CF90BF90AF909F9068
:100F50008F9008959F92AF92BF92CF92DF92EF92BF
:100F6000FF920F931F93CF93DF937C01DC01919647
:100F70009C9091979296DC909297ED91FC91A1882C
:100F8000B82ECF2CC0E0D0E0D701ED91FC911197A5
:100F900020895F960D911C919097822F90E0880F89
:100FA000991F880F991F880F991FFC01EC9FC001A2
:100FB000ED9F900DFC9F900D1124080F191F8B2D94
:100FC0009C2D60E04D2D0E943E109E012F5F291543
:100FD00020F4D3942196DA14B8F2DF91CF911F91C7
:100FE0000F91FF90EF90DF90CF90BF90AF909F90C8
:100FF00008950F931F938C01ADDFC8010E946B1001
:101000001F910F910895DC01ED91FC91119780895A
:1010100091962C919197289F90011124220F331FB4
:10102000220F331F220F331F5F968C915F9790968C
:101030009C9160E070E0422F532F0C94E212DF92FB
:10104000EF92FF920F931F93CF93DF93EC01D62E75
:10105000F42E122FE0FE0CC0622F6D0D402F4F19A1
:10106000CE0131D5612F6F0D402F4D19CE012BD5FB
:10107000E1FE0CC0612F6D19402F4F19CE0123D511
:10108000612F6F19402F4D19CE011DD5E3FE0CC005
:10109000612F6D0D402F4F0DCE0115D5612F6F0DB6
:1010A000402F4D0DCE010FD5E2FE0CC0612F6D1902
:1010B000402F4F0DCE0107D5612F6F19402F4D0DD9
:1010C000CE0101D5DF91CF911F910F91FF90EF904D
:1010D000DF9008958F929F92AF92BF92CF92DF924E
:1010E000EF92FF920F931F93CF93DF93EC01962E15
:1010F000A42ED22E802E621B421B292D2F5F2D0D78
:101100000A2D0F5F0D0D42D5882349F1CE0160E015
:101110004D2D292D0A2DE82C92DFDD2001F181E0F3
:10112000F82EFD188D2D8195B82EBB0C10E00F2EDA
:10113000F3E0CF2EF02DFF2024F0DA9482E0B80EF9
:10114000FB0C1F5FCE01612F4D2D292D0A2DE82CA0
:1011500076DF1D1520F4FC0C82E0C80EECCFDF9189
:10116000CF911F910F91FF90EF90DF90CF90BF90A4
:10117000AF909F908F900895FC0188E0808388E86D
:1011800091E00895CF92DF92EF92FF920F931F9319
:10119000DF93CF930F92CDB7DEB77C016B01FA01DD
:1011A000890169E271E143E75FE09F010E946811F4
:1011B000CE010196E1DFBC01C70149812FED3DE081
:1011C0008601DAD50F90CF91DF911F910F91FF909B
:1011D000EF90DF90CF900895FC01E60FF11DE491B0
:1011E0008E2F0895FC01E60FF11D8491382F20E029
:1011F0003196E4912E0F311D822F932F0895EF9297
:10120000FF920F931F937C018B01CB0160E0E4DF21
:10121000F7018083C80161E0DFDFF7018183C80146
:1012200062E0DADFF7018283C80163E0D5DFF7010E
:101230008383C80164E0D0DFF7018483C80165E0DF
:10124000CBDFF7018583C80166E0C6DFF70186833F
:10125000C80167E0C1DFF7018783C80168E0BCDF30
:10126000F7018087C80169E0B7DFF7018187C8010E
:101270006AE0B2DFF7018287C8016BE0ADDFF701FA
:101280008387C8016CE0A8DFF7018487C8016DE09F
:10129000A3DFF7018587C8016EE09EDFF70186872F
:1012A000C8016FE099DFF7018787C80160E194DF2B
:1012B000F701808BC80161E195DFF701928B818B8B
:1012C000C80163E18FDFF701948B838BC80165E16F
:1012D00089DFF701968B858B1F910F91FF90EF901F
:1012E0000895DC0118964C911897ED91FC91119797
:1012F000849190E0042E02C0959587950A94E2F7B8
:10130000582F362F340F383080F031961196FC93D9
:10131000EE93E4918E2F90E028E0241B02C0880F0A
:10132000991F2A95E2F7582B385018963C9381E084
:1013300090E002C0880F991F6A95E2F781508523DB
:1013400008951F93162FCDDF115021E030E002C029
:10135000220F331F1A95E2F7821B1F910895213047
:1013600039F0213018F0223039F404C0840F089588
:10137000860F0895841B0895861B0895213039F047
:10138000213018F0223039F404C0860F0895841BF0
:101390000895861B0895840F08950F931F93CF938C
:1013A000DF93EC018C010E5C1F4F7BAB6AAB1AAE76
:1013B000FC01ED5BFF4FC801608193DF88AFFE0148
:1013C000EC5BFF4FC80160818CDF89AFFE01E55AFD
:1013D000FF4F80818CAF1DAE882311F481E08DAF6B
:1013E000DF91CF911F910F910895EF92FF920F938C
:1013F0001F93CF93DF93FC017B0186A597A59C01EA
:10140000295E3F4F6F3F710511F008F037C061361C
:10141000710538F0EE5AFF4F80819181280F391FF6
:1014200009C06134710530F0E05BFF4F808191812C
:10143000280F391FA9014F5F5F4FFA01849188235C
:1014400009F458C0F901849190E08E159F0551F47C
:1014500006C0F901849190E08E159F0519F4F901F9
:1014600032964AC0FA018491280F311DA9014F5FBD
:101470005F4FFA018491882361F73CC0EC5AFF4F1B
:1014800080819181E901C80FD91F8E01C80160E0F8
:10149000A9DEC80FD91FC80162E0A4DE0C5F1F4F90
:1014A0008E159F0598F3FE012491922F80E03196CE
:1014B000E4912E2F30E0822B932B0097D9F08E15DC
:1014C0009F0539F403C08E159F0519F4FE0133966C
:1014D00013C0FE013296E491CE0FD11DFE0184911E
:1014E000382F20E03196E4918E2F90E0822B932BC1
:1014F000009749F7E0E0F0E08E2F9F2FDF91CF912A
:101500001F910F91FF90EF900895CF93DF93EC011F
:101510008EA59FA5892B09F466C0DE01A95ABF4F8D
:10152000FE01E45BFF4F80818C93DE01A85ABF4F20
:10153000FE01E35BFF4F80818C93FE01EA5AFF4F6F
:10154000E081EE2309F44FC0E130E9F4FE01E25BF3
:10155000FF4F9081FE01E95AFF4F8081891724F4E3
:10156000FE01E95AFF4F9083FE01E15BFF4F90813E
:10157000FE01E85AFF4F80819817ACF5FE01E85A4A
:10158000FF4F908330C0FE01E75BFF4F7081FE018B
:10159000E55BFF4F6081FE01E95AFF4F408155270F
:1015A00047FD5095862F992787FD9095272F332744
:1015B00027FD3095820F931F4817590734F4FE0119
:1015C000E95AFF4F862F870F8083FE01E55BFF4FAF
:1015D0009081FE01E85AFF4F8081981724F4FE01A4
:1015E000E85AFF4F9083DF91CF91089580E00895EE
:1015F00026EF3AE0FC0131AB20AB0895CF93DF93A7
:10160000EC018EA59FA58617970739F07FA76EA7D7
:10161000CE01CF96F4DDCE0178DFDF91CF91089532
:101620005F926F927F928F929F92AF92BF92CF9272
:10163000DF92EF92FF920F931F93CF93DF93EC0112
:10164000842ECEA8EFA8D62E0F2EFBE56F2E772482
:10165000F02D680E791E552488ADF82EFC18BF2C8D
:10166000DF1408F4BD2C0DA99E2C1EAD8CA96C2D89
:101670004E2D212F83DEA82E802F6C2D4E2D212F55
:101680006EDE482F882049F08CADF3018083CE01B7
:101690006A2D2B2D012F09D20BC08BAD882341F46D
:1016A0008DADF3018083CE016A2D2B2D0EADFDD1C2
:1016B000DF1420F0DF18E394C52CCECF8C2D8D0DD8
:1016C0008EAB9FAADF91CF911F910F91FF90EF906A
:1016D000DF90CF90BF90AF909F908F907F906F9052
:1016E0005F9008958F929F92AF92BF92CF92DF92B8
:1016F000EF92FF920F931F93CF93DF93EC010F2E86
:10170000F2E3EF2EFF24F02DE80EF91E46DE99AC31
:10171000FE01EB5BFF4FC701608113DED82EFE0197
:10172000EA5BFF4FC70160810CDE182FFE01E95B09
:10173000FF4FC701608105DE882E88AD18160CF0BA
:1017400074C0190D11958CA96D2D412F2EAD16DE8B
:10175000082F8CAB8DA96D2D412F2EAD00DE482FAB
:101760008DAB8EAD813079F0813038F08230A1F0D0
:101770008330F1F0202F342F23C088AD202F280F85
:10178000392D340F1DC0902F9F5F092F091988AD87
:10179000342F380F292F14C0802F8F5F98AD082F5A
:1017A000091B942F9F5F492F4919282F392F08C0F3
:1017B000292D200F942F9F5F88AD492F481B392F6B
:1017C000CE01602F032FE2D1882379F11EAA1FAA30
:1017D0000F2EF1E4AF2EBB24F02DAC0EBD1E0F2E4C
:1017E000F2E4CF2EDD24F02DCC0EDD1EC701F50175
:1017F000608177DD082FC701F601608172DD182F47
:10180000CE01602F40E00CDFCE01612F41E008DF08
:10181000C70161E066DD882399F78FA9891534F344
:10182000FE01E55AFF4F8CAD8083882DDF91CF916B
:101830001F910F91FF90EF90DF90CF90BF90AF90EE
:101840009F908F900895EF92FF920F931F93CF93E5
:10185000DF93EC01162F042F79018EAD813069F0F2
:10186000813028F0823079F08330C1F412C0E8A9C9
:10187000F9A9CE010995080F11C0E8A9F9A9CE016F
:101880000995181B0BC0E8A9F9A9CE010995081BF9
:1018900005C0E8A9F9A9CE010995180F1CAB0DAB3D
:1018A000CE01B701A2DDBC01009711F480E002C0B7
:1018B000CE0118DFDF91CF911F910F91FF90EF9034
:1018C0000895BF92CF92DF92EF92FF920F931F93F2
:1018D000CF93DF93EC01D62EE42E8901B82ECD2EC6
:1018E0009D2F76D2FF2402C00F5F1F4FEA81FB813C
:1018F0008B2D9C2DD8016C9109959C01BFEF8F3FDA
:101900009B07D9F08FEF2E3F380771F3CE016D2D75
:101910004E2D99DF9EAD913049F0913028F09230F4
:1019200039F0933041F406C0D80E05C0E80E03C06C
:10193000D81A01C0E81AF80ED7CF8F2DDF91CF91BA
:101940001F910F91FF90EF90DF90CF90BF9008957F
:10195000FC018BEE9EE093838283CF01B2CFDC014A
:10196000FB018C919081981740F4841720F4942FF8
:101970009150908304C01C9280E0841748F499230E
:1019800039F0491710F081E00895408381E008950F
:1019900080E00895EF92FF920F931F93DF93CF9310
:1019A00000D00F92CDB7DEB77C01DC0192968C910E
:1019B000929790E0880F991F880F991F880F991FA1
:1019C000481B213099F493968C919397681708F0EF
:1019D00062C094968C919497481708F05CC05B960F
:1019E000ED91FC915C97C701099555C0023059F4FF
:1019F000862F8F5F682F621B69834A83F70154A18A
:101A000033A110E019C0033071F4842F8F5F482F89
:101A1000421B69834A83D70194965C91949793966D
:101A20003C9111E01CC069834A83F70154A133A1A2
:101A3000102F117000FD13C0451768F5862F820F17
:101A40008B83CE010196BE016D5F7F4F432F87DFF1
:101A5000882309F19B818981292F281B12C06317D4
:101A6000D0F4842F820F8B83CE010296BE016D5F6E
:101A70007F4F452F74DF882371F09B818A81292F46
:101A8000281BD7015B96ED91FC915C97C70169819A
:101A90004A81012F09950F900F900F90CF91DF9100
:101AA0001F910F91FF90EF9008950F93DC01222377
:101AB00041F05D96ED91FC915E970280F381E02DFF
:101AC00009950F9108950F93FC0184A5481768F0BC
:101AD00085A5481750F482A5681738F083A56817C4
:101AE00020F4CF0121E000E0E0DF0F910895EF92B4
:101AF000FF920F931F93CF93DF93EC01162FF42ED9
:101B0000E22E262F2F5F0E2D040F40D0882331F0B8
:101B1000CE01612F4F2D2E2D01E0C7DFDF91CF9138
:101B20001F910F91FF90EF900895EF92FF920F9306
:101B30001F93CF93DF93EC01162FF42EE22E260F86
:101B4000042F0F5F23D0882331F0CE01612F4F2D5A
:101B50002E2D00E0AADFDF91CF911F910F91FF9012
:101B6000EF900895461748F4821710F481E0089525
:101B700080E0241750F481E00895821710F080E08F
:101B8000089580E0241708F481E00895FF920F93F0
:101B90001F93CF93DF93EC01F62E122F202F8CA5ED
:101BA0006DA5E0DF882329F08AA56BA54F2D212F95
:101BB000D9DFDF91CF911F910F91FF900895EF92A0
:101BC000FF920F931F93CF93DF937C01162FA22FC9
:101BD000642F677081E090E0062E01C0880F0A94A0
:101BE000EAF7F701E55AFF4FE081E23010F070E0CC
:101BF00006C0E13019F4782FB0E002C0782FB82F7A
:101C0000242F30E0287FE7014F8D58A1E881F9812A
:101C1000808990E0FC012E9FC0012F9F900D3E9F78
:101C2000900D1124480F591FFA01E10FF11D0023F7
:101C300039F48081872B8B278193A150D1F722C063
:101C40009701255A3F4F91E08081872B8B27808316
:101C5000862F8F5F682F6770A150662379F4E701A4
:101C60008BA1E80FF11DE9018881823028F48130D1
:101C700011F4792F05C0792FB92F02C0770FBB0F50
:101C8000AA2311F7DF91CF911F910F91FF90EF9051
:101C90000895DC0191968C91919790E0880F991F9F
:101CA000880F991F880F991F94968C939497ED91A4
:101CB000FC9111978089803208F08FE190E0880FC5
:101CC000991F880F991F880F991F93968C9393974C
:101CD00092964C919297242F30E0C901880F991F5A
:101CE000880F991F880F991F782F95968C93959739
:101CF00091965C919197ED91FC9111976189250FD7
:101D0000311D862F90E08217930714F4562F541B31
:101D1000852F880F880F880F96967C939697870F4C
:101D200097968C93979780EF98968C939897ED91D0
:101D3000FC91119784899589813F910518F49896B3
:101D40008C939897ED91FC911197868999968C9335
:101D500008950F931F938C019CDFF80112A683A1B5
:101D600083A786A184A787A185A71F910F910895B6
:101D70000F9310DE0F910895EF92FF920F931F9330
:101D80007C01D801FC0117A616A6348F238F70A3FF
:101D9000678F41A312A213AEE65AFF4F1082FC01D7
:101DA000E55AFF4F81E08083F701E45AFF4F8083BB
:101DB000F701168F058FED91FC91C7010995C701B9
:101DC00017DCF70116AE1F910F91FF90EF90089569
:101DD000FC01158A0895662321F06A3011F070E045
:101DE00002C06FEF7FEF862F972F0895FC01762FAB
:101DF0009A01A085B18567E1472FFD0109950895F6
:101E0000DF93CF930F92CDB7DEB7698361E0AE0168
:101E10004F5F5F4FEBDF0F90CF91DF910895FC0193
:101E2000A085B18568E140E020E030E0FD01099542
:101E30000895FC01A085B18569E140E020E030E033
:101E4000FD0109950895FC01462FA681B78165E142
:101E500020E030E0FD0109950895FC01462FA681A0
:101E6000B78166E120E030E0FD0109950895FC01AD
:101E7000762F9A01A681B78167E1472FFD01099569
:101E80000895FC01A681B78168E140E020E030E0E0
:101E9000FD0109950895FC01A681B78169E140E043
:101EA00020E030E0FD0109950895DF92EF92FF9266
:101EB0000F931F938C01D62E7A01B1DFC80160E425
:101EC0009FDFD8011896ED91FC911997C80167E141
:101ED0004D2D97010995C801ACDF1F910F91FF901F
:101EE000EF90DF900895CF92DF92EF92FF920F93E1
:101EF0001F93CF93DF937C01042F673128F4653162
:101F000058F4643139F443C0673189F06A3110F410
:101F100081E04FC080E04DC082DFC70160E070DF2C
:101F2000C701602F6DDFC70184DF81E042C0690116
:101F3000493138F1142FE601C70168E1AE01B5DF80
:101F4000185168961931C0F7802F895168E12ED356
:101F5000482F50E04F5F5F4F9A01220F331F240F2D
:101F6000351F220F331F220F331F220F331FC20EC4
:101F7000D31E202F285198EE899F802D1124022FE7
:101F8000080FC701602FA60190DF81E012C0DC01BD
:101F900052968C9152978F3F19F488E752968C9302
:101FA000D7011896ED91FC911997C70164E1402F74
:101FB0000995DF91CF911F910F91FF90EF90DF90E6
:101FC000CF900895CF92DF92EF92FF920F931F93DD
:101FD000DF93CF930F92CDB7DEB77C018B016E01FB
:101FE0000894C11CD11CD8016D918D016731C1F0DD
:101FF000683118F4653180F105C06A31D0F06E3F68
:1020000059F522C0FD0141918F014983D7011696F0
:10201000ED91FC911797C70120E030E00995E3CFDF
:10202000FD0181918F018983C70161E0A6011FDF56
:10203000DACFD7011696ED91FC911797C70140E0D2
:1020400020E030E00995CFCFFD0141918F01498318
:10205000C70169E21FD1C7CF0F90CF91DF911F91C8
:102060000F91FF90EF90DF90CF900895FC01DB017E
:102070007183608352968C91808B08950F931F9388
:10208000DF93CF9300D000D00F92CDB7DEB7DC0145
:102090006C834D832B831A8309831496ED91FC91F5
:1020A00015976FE041E09E012F5F3F4F09950F901C
:1020B0000F900F900F900F90CF91DF911F910F9184
:1020C0000895FC01A481B58169E040E020E030E0A2
:1020D000FD0109950895FC01A481B58160E140E00E
:1020E00020E030E0FD01099508950F931F938C01C6
:1020F000DC011A96ED91FC911B9768E240E020E02C
:1021000030E00995D8011696ED91FC911797C8011A
:1021100064E140E020E030E00995C8016BE441E073
:10212000B9D0D801ED91FC91C80169E24481B2D0E7
:10213000C8016BE440E0AED0D801ED91FC91C8013C
:1021400069E24481A7D0C8016BE441E0A3D0D80183
:10215000ED91FC91C80169E245819CD01F910F91DE
:102160000895EF92FF920F931F93CF93DF93EC01AB
:10217000042F122FF32E6D30B9F06E3018F46B303F
:1021800029F406C06E3021F16F3069F180E05AC049
:10219000442329F462E271E015DF81E053C067E275
:1021A00071E010DF81E04EC0442349F46CE271E03D
:1021B00009DFE881F9818289888B81E043C063E38C
:1021C00071E000DFE881F9818389888B81E03AC082
:1021D00058DECE0161E837DECE01602F3EDECE0153
:1021E0005ADE81E02FC04DDE812F9F2D7C01F7014B
:1021F0001381110F110F110F8889180FCE0160E4A0
:1022000022DE612F62956F706061CE011CDE1F704F
:10221000CE01612F22DEF7016481606BCE011DDEED
:10222000F701628170E0660F771F660F771F660FF8
:10223000771F40815181CE011ADE015089F7CE010E
:102240002ADE81E0DF91CF911F910F91FF90EF90F7
:1022500008951F93CF93DF93EC01162F82DF88231D
:1022600011F081E013C0193061F01A3011F080E0F4
:102270000DC0CE013ADFCE016AE371E0A3DE81E05A
:1022800005C0CE016FE671E0F1DE81E0DF91CF9114
:102290001F910895FC01A285B38520E030E0FD0187
:1022A0000995089580E00895FC011182108282E56D
:1022B00091E1958384839783868391878087938731
:1022C0008287118A148A158A8FEF828B878B0895F3
:1022D0008F929F92AF92BF92CF92DF92EF92FF9236
:1022E0000F931F937C016B015A014901DDDFF70158
:1022F000D582C482B782A6829186808613870287A0
:10230000C701DFDE1F910F91FF90EF90DF90CF901C
:10231000BF90AF909F908F9008956CD008F481E0AB
:10232000089594D088F09F5790F0B92F9927B7510E
:10233000A0F0D1F0660F771F881F991F1AF0BA9589
:10234000C9F712C0B13081F09BD0B1E0089598C0B8
:10235000672F782F8827B85F39F0B93FCCF386957F
:1023600077956795B395D9F73EF4909580957095DC
:1023700061957F4F8F4F9F4F0895E89409C097FB59
:102380003EF490958095709561957F4F8F4F9F4F4C
:102390009923A9F0F92F96E9BB279395F695879590
:1023A00077956795B795F111F8CFFAF4BB0F11F453
:1023B00060FF1BC06F5F7F4F8F4F9F4F16C08823FA
:1023C00011F096E911C0772321F09EE8872F762F30
:1023D00005C0662371F096E8862F70E060E02AF071
:1023E0009A95660F771F881FDAF7880F969587955D
:1023F00097F90895990F0008550FAA0BE0E8FEEF32
:1024000016161706E807F907C0F012161306E407B8
:10241000F50798F0621B730B840B950B39F40A26B1
:1024200061F0232B242B252B21F408950A2609F48F
:10243000A140A6958FEF811D811D089557FD9058ED
:10244000440F551F59F05F3F71F04795880F97FB78
:10245000991F61F09F3F79F0879508951216130632
:102460001406551FF2CF4695F1DF08C01616170661
:102470001806991FF1CF8695710561050894089596
:10248000E894BB2766277727CB0197F90895B2DF39
:1024900008F48FEF08950BD078C069D028F06ED083
:1024A00018F0952309F05AC05FC01124EACFC6DFA7
:1024B000A0F3959FD1F3950F50E0551F629FF00157
:1024C000729FBB27F00DB11D639FAA27F00DB11DB0
:1024D000AA1F649F6627B00DA11D661F829F222739
:1024E000B00DA11D621F739FB00DA11D621F839FC0
:1024F000A00D611D221F749F3327A00D611D231F96
:10250000849F600D211D822F762F6A2F11249F57E3
:1025100050408AF0E1F088234AF0EE0FFF1FBB1F06
:10252000661F771F881F91505040A9F79E3F5105A5
:1025300070F014C0A6CF5F3FECF3983EDCF38695B5
:1025400077956795B795F795E7959F5FC1F7FE2B50
:10255000880F911D9695879597F9089597F99F672C
:1025600080E870E060E008959FEF80EC089500241B
:102570000A941616170618060906089500240A94E8
:1025800012161306140605060895092E0394000C6E
:1025900011F4882352F0BB0F40F4BF2B11F460FFFD
:1025A00004C06F5F7F4F8F4F9F4F0895991B79E055
:1025B00004C0991F961708F0961B881F7A95C9F7D3
:1025C00080950895DC0101C06D9341505040E0F7C3
:0625D0000895F894FFCF0E
:1025D600526561647920546F20476F212100486954
:1025E60000546869732069732041686E2100A90E42
:1025F600B80E1815AF19FF1815AE19FF1815A11545
:10260600C819FF1815A015C019FF1815AE15D5164F
:102616008015A8163F15D316001540158D161415EE
:1026260020160015A115C815DA1612158116CF1534
:10263600D916F115DB1640152E15A415A619FF009F
:1026460001140A6464323200127A000004289610DB
:082656000800008000400000B4
:00000001FF
